{
  "_format": "hh-sol-artifact-1",
  "contractName": "Voting",
  "sourceName": "contracts/VotingSystem.sol",
  "abi": [
    {
      "inputs": [
        {
          "internalType": "string[]",
          "name": "_candidateNames",
          "type": "string[]"
        },
        {
          "internalType": "uint256",
          "name": "_durationInMinutes",
          "type": "uint256"
        }
      ],
      "stateMutability": "nonpayable",
      "type": "constructor"
    },
    {
      "inputs": [
        {
          "internalType": "string",
          "name": "_name",
          "type": "string"
        }
      ],
      "name": "addCandidate",
      "outputs": [],
      "stateMutability": "nonpayable",
      "type": "function"
    },
    {
      "inputs": [
        {
          "internalType": "uint256",
          "name": "",
          "type": "uint256"
        }
      ],
      "name": "candidates",
      "outputs": [
        {
          "internalType": "string",
          "name": "name",
          "type": "string"
        },
        {
          "internalType": "uint256",
          "name": "voteCount",
          "type": "uint256"
        }
      ],
      "stateMutability": "view",
      "type": "function"
    },
    {
      "inputs": [],
      "name": "getAllVotesOfCandidates",
      "outputs": [
        {
          "components": [
            {
              "internalType": "string",
              "name": "name",
              "type": "string"
            },
            {
              "internalType": "uint256",
              "name": "voteCount",
              "type": "uint256"
            }
          ],
          "internalType": "struct Voting.Candidate[]",
          "name": "",
          "type": "tuple[]"
        }
      ],
      "stateMutability": "view",
      "type": "function"
    },
    {
      "inputs": [],
      "name": "getRemainingTime",
      "outputs": [
        {
          "internalType": "uint256",
          "name": "",
          "type": "uint256"
        }
      ],
      "stateMutability": "view",
      "type": "function"
    },
    {
      "inputs": [],
      "name": "getVotingStatus",
      "outputs": [
        {
          "internalType": "bool",
          "name": "",
          "type": "bool"
        }
      ],
      "stateMutability": "view",
      "type": "function"
    },
    {
      "inputs": [
        {
          "internalType": "address",
          "name": "_voter",
          "type": "address"
        }
      ],
      "name": "issueToken",
      "outputs": [],
      "stateMutability": "nonpayable",
      "type": "function"
    },
    {
      "inputs": [
        {
          "internalType": "address",
          "name": "",
          "type": "address"
        }
      ],
      "name": "issuedTokens",
      "outputs": [
        {
          "internalType": "bool",
          "name": "",
          "type": "bool"
        }
      ],
      "stateMutability": "view",
      "type": "function"
    },
    {
      "inputs": [],
      "name": "owner",
      "outputs": [
        {
          "internalType": "address",
          "name": "",
          "type": "address"
        }
      ],
      "stateMutability": "view",
      "type": "function"
    },
    {
      "inputs": [
        {
          "internalType": "uint256",
          "name": "_candidateIndex",
          "type": "uint256"
        }
      ],
      "name": "vote",
      "outputs": [],
      "stateMutability": "nonpayable",
      "type": "function"
    },
    {
      "inputs": [
        {
          "internalType": "address",
          "name": "",
          "type": "address"
        }
      ],
      "name": "voters",
      "outputs": [
        {
          "internalType": "bool",
          "name": "",
          "type": "bool"
        }
      ],
      "stateMutability": "view",
      "type": "function"
    },
    {
      "inputs": [],
      "name": "votingEnd",
      "outputs": [
        {
          "internalType": "uint256",
          "name": "",
          "type": "uint256"
        }
      ],
      "stateMutability": "view",
      "type": "function"
    },
    {
      "inputs": [],
      "name": "votingStart",
      "outputs": [
        {
          "internalType": "uint256",
          "name": "",
          "type": "uint256"
        }
      ],
      "stateMutability": "view",
      "type": "function"
    }
  ],
  "bytecode": "0x60806040523480156200001157600080fd5b5060405162001f1238038062001f12833981810160405281019062000037919062000419565b60005b8251811015620000dc57600060405180604001604052808584815181106200006757620000666200047f565b5b60200260200101518152602001600081525090806001815401808255809150506001900390600052602060002090600202016000909190919091506000820151816000019081620000b99190620006ef565b506020820151816001015550508080620000d39062000805565b9150506200003a565b5033600160006101000a81548173ffffffffffffffffffffffffffffffffffffffff021916908373ffffffffffffffffffffffffffffffffffffffff16021790555042600481905550603c8162000134919062000852565b426200014191906200089d565b6005819055505050620008d8565b6000604051905090565b600080fd5b600080fd5b600080fd5b6000601f19601f8301169050919050565b7f4e487b7100000000000000000000000000000000000000000000000000000000600052604160045260246000fd5b620001b38262000168565b810181811067ffffffffffffffff82111715620001d557620001d462000179565b5b80604052505050565b6000620001ea6200014f565b9050620001f88282620001a8565b919050565b600067ffffffffffffffff8211156200021b576200021a62000179565b5b602082029050602081019050919050565b600080fd5b600080fd5b600067ffffffffffffffff82111562000254576200025362000179565b5b6200025f8262000168565b9050602081019050919050565b60005b838110156200028c5780820151818401526020810190506200026f565b60008484015250505050565b6000620002af620002a98462000236565b620001de565b905082815260208101848484011115620002ce57620002cd62000231565b5b620002db8482856200026c565b509392505050565b600082601f830112620002fb57620002fa62000163565b5b81516200030d84826020860162000298565b91505092915050565b60006200032d6200032784620001fd565b620001de565b905080838252602082019050602084028301858111156200035357620003526200022c565b5b835b81811015620003a157805167ffffffffffffffff8111156200037c576200037b62000163565b5b8086016200038b8982620002e3565b8552602085019450505060208101905062000355565b5050509392505050565b600082601f830112620003c357620003c262000163565b5b8151620003d584826020860162000316565b91505092915050565b6000819050919050565b620003f381620003de565b8114620003ff57600080fd5b50565b6000815190506200041381620003e8565b92915050565b6000806040838503121562000433576200043262000159565b5b600083015167ffffffffffffffff8111156200045457620004536200015e565b5b6200046285828601620003ab565b9250506020620004758582860162000402565b9150509250929050565b7f4e487b7100000000000000000000000000000000000000000000000000000000600052603260045260246000fd5b600081519050919050565b7f4e487b7100000000000000000000000000000000000000000000000000000000600052602260045260246000fd5b600060028204905060018216806200050157607f821691505b602082108103620005175762000516620004b9565b5b50919050565b60008190508160005260206000209050919050565b60006020601f8301049050919050565b600082821b905092915050565b600060088302620005817fffffffffffffffffffffffffffffffffffffffffffffffffffffffffffffffff8262000542565b6200058d868362000542565b95508019841693508086168417925050509392505050565b6000819050919050565b6000620005d0620005ca620005c484620003de565b620005a5565b620003de565b9050919050565b6000819050919050565b620005ec83620005af565b62000604620005fb82620005d7565b8484546200054f565b825550505050565b600090565b6200061b6200060c565b62000628818484620005e1565b505050565b5b8181101562000650576200064460008262000611565b6001810190506200062e565b5050565b601f8211156200069f5762000669816200051d565b620006748462000532565b8101602085101562000684578190505b6200069c620006938562000532565b8301826200062d565b50505b505050565b600082821c905092915050565b6000620006c460001984600802620006a4565b1980831691505092915050565b6000620006df8383620006b1565b9150826002028217905092915050565b620006fa82620004ae565b67ffffffffffffffff81111562000716576200071562000179565b5b620007228254620004e8565b6200072f82828562000654565b600060209050601f83116001811462000767576000841562000752578287015190505b6200075e8582620006d1565b865550620007ce565b601f19841662000777866200051d565b60005b82811015620007a1578489015182556001820191506020850194506020810190506200077a565b86831015620007c15784890151620007bd601f891682620006b1565b8355505b6001600288020188555050505b505050505050565b7f4e487b7100000000000000000000000000000000000000000000000000000000600052601160045260246000fd5b60006200081282620003de565b91507fffffffffffffffffffffffffffffffffffffffffffffffffffffffffffffffff8203620008475762000846620007d6565b5b600182019050919050565b60006200085f82620003de565b91506200086c83620003de565b92508282026200087c81620003de565b91508282048414831517620008965762000895620007d6565b5b5092915050565b6000620008aa82620003de565b9150620008b783620003de565b9250828201905080821115620008d257620008d1620007d6565b5b92915050565b61162a80620008e86000396000f3fe608060405234801561001057600080fd5b50600436106100b45760003560e01c80638903408211610071578063890340821461017c5780638da5cb5b1461019857806390a9ab90146101b6578063a0b498a4146101d4578063a3ec138d14610204578063efb98bcf14610234576100b4565b80630121b93f146100b9578063101158af146100d55780633477ee2e146100f3578063462e91ec14610124578063581c281c1461014057806385a386351461015e575b600080fd5b6100d360048036038101906100ce9190610a02565b610252565b005b6100dd61049a565b6040516100ea9190610a3e565b60405180910390f35b61010d60048036038101906101089190610a02565b6104a0565b60405161011b929190610ae9565b60405180910390f35b61013e60048036038101906101399190610c4e565b61055c565b005b610148610652565b6040516101559190610cb2565b60405180910390f35b61016661066c565b6040516101739190610a3e565b60405180910390f35b61019660048036038101906101919190610d2b565b610672565b005b6101a06107ea565b6040516101ad9190610d67565b60405180910390f35b6101be610810565b6040516101cb9190610eda565b60405180910390f35b6101ee60048036038101906101e99190610d2b565b61090b565b6040516101fb9190610cb2565b60405180910390f35b61021e60048036038101906102199190610d2b565b61092b565b60405161022b9190610cb2565b60405180910390f35b61023c61094b565b6040516102499190610a3e565b60405180910390f35b600360003373ffffffffffffffffffffffffffffffffffffffff1673ffffffffffffffffffffffffffffffffffffffff16815260200190815260200160002060009054906101000a900460ff166102de576040517f08c379a00000000000000000000000000000000000000000000000000000000081526004016102d590610f48565b60405180910390fd5b600260003373ffffffffffffffffffffffffffffffffffffffff1673ffffffffffffffffffffffffffffffffffffffff16815260200190815260200160002060009054906101000a900460ff161561036b576040517f08c379a000000000000000000000000000000000000000000000000000000000815260040161036290610fb4565b60405180910390fd5b60008054905081106103b2576040517f08c379a00000000000000000000000000000000000000000000000000000000081526004016103a990611020565b60405180910390fd5b60045442101580156103c5575060055442105b610404576040517f08c379a00000000000000000000000000000000000000000000000000000000081526004016103fb9061108c565b60405180910390fd5b60008181548110610418576104176110ac565b5b9060005260206000209060020201600101600081548092919061043a9061110a565b91905055506001600260003373ffffffffffffffffffffffffffffffffffffffff1673ffffffffffffffffffffffffffffffffffffffff16815260200190815260200160002060006101000a81548160ff02191690831515021790555050565b60045481565b600081815481106104b057600080fd5b90600052602060002090600202016000915090508060000180546104d390611181565b80601f01602080910402602001604051908101604052809291908181526020018280546104ff90611181565b801561054c5780601f106105215761010080835404028352916020019161054c565b820191906000526020600020905b81548152906001019060200180831161052f57829003601f168201915b5050505050908060010154905082565b600160009054906101000a900473ffffffffffffffffffffffffffffffffffffffff1673ffffffffffffffffffffffffffffffffffffffff163373ffffffffffffffffffffffffffffffffffffffff16146105ec576040517f08c379a00000000000000000000000000000000000000000000000000000000081526004016105e390611224565b60405180910390fd5b6000604051806040016040528083815260200160008152509080600181540180825580915050600190039060005260206000209060020201600090919091909150600082015181600001908161064291906113f0565b5060208201518160010155505050565b60006004544210158015610667575060055442105b905090565b60055481565b600160009054906101000a900473ffffffffffffffffffffffffffffffffffffffff1673ffffffffffffffffffffffffffffffffffffffff163373ffffffffffffffffffffffffffffffffffffffff1614610702576040517f08c379a00000000000000000000000000000000000000000000000000000000081526004016106f990611224565b60405180910390fd5b600360008273ffffffffffffffffffffffffffffffffffffffff1673ffffffffffffffffffffffffffffffffffffffff16815260200190815260200160002060009054906101000a900460ff161561078f576040517f08c379a000000000000000000000000000000000000000000000000000000000815260040161078690611534565b60405180910390fd5b6001600360008373ffffffffffffffffffffffffffffffffffffffff1673ffffffffffffffffffffffffffffffffffffffff16815260200190815260200160002060006101000a81548160ff02191690831515021790555050565b600160009054906101000a900473ffffffffffffffffffffffffffffffffffffffff1681565b60606000805480602002602001604051908101604052809291908181526020016000905b82821015610902578382906000526020600020906002020160405180604001604052908160008201805461086790611181565b80601f016020809104026020016040519081016040528092919081815260200182805461089390611181565b80156108e05780601f106108b5576101008083540402835291602001916108e0565b820191906000526020600020905b8154815290600101906020018083116108c357829003601f168201915b5050505050815260200160018201548152505081526020019060010190610834565b50505050905090565b60036020528060005260406000206000915054906101000a900460ff1681565b60026020528060005260406000206000915054906101000a900460ff1681565b6000600454421015610992576040517f08c379a0000000000000000000000000000000000000000000000000000000008152600401610989906115a0565b60405180910390fd5b60055442106109a457600090506109b5565b426005546109b291906115c0565b90505b90565b6000604051905090565b600080fd5b600080fd5b6000819050919050565b6109df816109cc565b81146109ea57600080fd5b50565b6000813590506109fc816109d6565b92915050565b600060208284031215610a1857610a176109c2565b5b6000610a26848285016109ed565b91505092915050565b610a38816109cc565b82525050565b6000602082019050610a536000830184610a2f565b92915050565b600081519050919050565b600082825260208201905092915050565b60005b83811015610a93578082015181840152602081019050610a78565b60008484015250505050565b6000601f19601f8301169050919050565b6000610abb82610a59565b610ac58185610a64565b9350610ad5818560208601610a75565b610ade81610a9f565b840191505092915050565b60006040820190508181036000830152610b038185610ab0565b9050610b126020830184610a2f565b9392505050565b600080fd5b600080fd5b7f4e487b7100000000000000000000000000000000000000000000000000000000600052604160045260246000fd5b610b5b82610a9f565b810181811067ffffffffffffffff82111715610b7a57610b79610b23565b5b80604052505050565b6000610b8d6109b8565b9050610b998282610b52565b919050565b600067ffffffffffffffff821115610bb957610bb8610b23565b5b610bc282610a9f565b9050602081019050919050565b82818337600083830152505050565b6000610bf1610bec84610b9e565b610b83565b905082815260208101848484011115610c0d57610c0c610b1e565b5b610c18848285610bcf565b509392505050565b600082601f830112610c3557610c34610b19565b5b8135610c45848260208601610bde565b91505092915050565b600060208284031215610c6457610c636109c2565b5b600082013567ffffffffffffffff811115610c8257610c816109c7565b5b610c8e84828501610c20565b91505092915050565b60008115159050919050565b610cac81610c97565b82525050565b6000602082019050610cc76000830184610ca3565b92915050565b600073ffffffffffffffffffffffffffffffffffffffff82169050919050565b6000610cf882610ccd565b9050919050565b610d0881610ced565b8114610d1357600080fd5b50565b600081359050610d2581610cff565b92915050565b600060208284031215610d4157610d406109c2565b5b6000610d4f84828501610d16565b91505092915050565b610d6181610ced565b82525050565b6000602082019050610d7c6000830184610d58565b92915050565b600081519050919050565b600082825260208201905092915050565b6000819050602082019050919050565b600082825260208201905092915050565b6000610dca82610a59565b610dd48185610dae565b9350610de4818560208601610a75565b610ded81610a9f565b840191505092915050565b610e01816109cc565b82525050565b60006040830160008301518482036000860152610e248282610dbf565b9150506020830151610e396020860182610df8565b508091505092915050565b6000610e508383610e07565b905092915050565b6000602082019050919050565b6000610e7082610d82565b610e7a8185610d8d565b935083602082028501610e8c85610d9e565b8060005b85811015610ec85784840389528151610ea98582610e44565b9450610eb483610e58565b925060208a01995050600181019050610e90565b50829750879550505050505092915050565b60006020820190508181036000830152610ef48184610e65565b905092915050565b7f4e6f20766f74696e6720746f6b656e2069737375656400000000000000000000600082015250565b6000610f32601683610a64565b9150610f3d82610efc565b602082019050919050565b60006020820190508181036000830152610f6181610f25565b9050919050565b7f416c726561647920766f7465642e000000000000000000000000000000000000600082015250565b6000610f9e600e83610a64565b9150610fa982610f68565b602082019050919050565b60006020820190508181036000830152610fcd81610f91565b9050919050565b7f496e76616c69642063616e64696461746520696e6465782e0000000000000000600082015250565b600061100a601883610a64565b915061101582610fd4565b602082019050919050565b6000602082019050818103600083015261103981610ffd565b9050919050565b7f566f74696e67206973206e6f74206163746976652e0000000000000000000000600082015250565b6000611076601583610a64565b915061108182611040565b602082019050919050565b600060208201905081810360008301526110a581611069565b9050919050565b7f4e487b7100000000000000000000000000000000000000000000000000000000600052603260045260246000fd5b7f4e487b7100000000000000000000000000000000000000000000000000000000600052601160045260246000fd5b6000611115826109cc565b91507fffffffffffffffffffffffffffffffffffffffffffffffffffffffffffffffff8203611147576111466110db565b5b600182019050919050565b7f4e487b7100000000000000000000000000000000000000000000000000000000600052602260045260246000fd5b6000600282049050600182168061119957607f821691505b6020821081036111ac576111ab611152565b5b50919050565b7f4f6e6c7920746865206f776e65722063616e20706572666f726d20746869732060008201527f616374696f6e0000000000000000000000000000000000000000000000000000602082015250565b600061120e602683610a64565b9150611219826111b2565b604082019050919050565b6000602082019050818103600083015261123d81611201565b9050919050565b60008190508160005260206000209050919050565b60006020601f8301049050919050565b600082821b905092915050565b6000600883026112a67fffffffffffffffffffffffffffffffffffffffffffffffffffffffffffffffff82611269565b6112b08683611269565b95508019841693508086168417925050509392505050565b6000819050919050565b60006112ed6112e86112e3846109cc565b6112c8565b6109cc565b9050919050565b6000819050919050565b611307836112d2565b61131b611313826112f4565b848454611276565b825550505050565b600090565b611330611323565b61133b8184846112fe565b505050565b5b8181101561135f57611354600082611328565b600181019050611341565b5050565b601f8211156113a45761137581611244565b61137e84611259565b8101602085101561138d578190505b6113a161139985611259565b830182611340565b50505b505050565b600082821c905092915050565b60006113c7600019846008026113a9565b1980831691505092915050565b60006113e083836113b6565b9150826002028217905092915050565b6113f982610a59565b67ffffffffffffffff81111561141257611411610b23565b5b61141c8254611181565b611427828285611363565b600060209050601f83116001811461145a5760008415611448578287015190505b61145285826113d4565b8655506114ba565b601f19841661146886611244565b60005b828110156114905784890151825560018201915060208501945060208101905061146b565b868310156114ad57848901516114a9601f8916826113b6565b8355505b6001600288020188555050505b505050505050565b7f546f6b656e20616c72656164792069737375656420746f207468697320766f7460008201527f6572000000000000000000000000000000000000000000000000000000000000602082015250565b600061151e602283610a64565b9150611529826114c2565b604082019050919050565b6000602082019050818103600083015261154d81611511565b9050919050565b7f566f74696e6720686173206e6f742073746172746564207965742e0000000000600082015250565b600061158a601b83610a64565b915061159582611554565b602082019050919050565b600060208201905081810360008301526115b98161157d565b9050919050565b60006115cb826109cc565b91506115d6836109cc565b92508282039050818111156115ee576115ed6110db565b5b9291505056fea2646970667358221220dbea9dfa1a17bd7b6d2e863a3e05a54ee98f676cd3d99ecf813bd980662f07c364736f6c63430008120033",
  "linkReferences": {},
  "deployedLinkReferences": {}
}